{
  "contractName": "Voting",
  "abi": [
    {
      "constant": true,
      "inputs": [
        {
          "name": "candidate",
          "type": "bytes32"
        }
      ],
      "name": "totalVotesFor",
      "outputs": [
        {
          "name": "",
          "type": "uint8"
        }
      ],
      "payable": false,
      "stateMutability": "view",
      "type": "function"
    },
    {
      "constant": true,
      "inputs": [
        {
          "name": "candidate",
          "type": "bytes32"
        }
      ],
      "name": "validCandidate",
      "outputs": [
        {
          "name": "",
          "type": "bool"
        }
      ],
      "payable": false,
      "stateMutability": "view",
      "type": "function"
    },
    {
      "constant": true,
      "inputs": [
        {
          "name": "",
          "type": "bytes32"
        }
      ],
      "name": "votesReceived",
      "outputs": [
        {
          "name": "",
          "type": "uint8"
        }
      ],
      "payable": false,
      "stateMutability": "view",
      "type": "function"
    },
    {
      "constant": true,
      "inputs": [],
      "name": "owner",
      "outputs": [
        {
          "name": "",
          "type": "address"
        }
      ],
      "payable": false,
      "stateMutability": "view",
      "type": "function"
    },
    {
      "constant": true,
      "inputs": [
        {
          "name": "",
          "type": "uint256"
        }
      ],
      "name": "candidateList",
      "outputs": [
        {
          "name": "",
          "type": "bytes32"
        }
      ],
      "payable": false,
      "stateMutability": "view",
      "type": "function"
    },
    {
      "constant": false,
      "inputs": [
        {
          "name": "candidate",
          "type": "bytes32"
        }
      ],
      "name": "voteForCandidate",
      "outputs": [],
      "payable": false,
      "stateMutability": "nonpayable",
      "type": "function"
    },
    {
      "constant": false,
      "inputs": [
        {
          "name": "newOwner",
          "type": "address"
        }
      ],
      "name": "transferOwnership",
      "outputs": [],
      "payable": false,
      "stateMutability": "nonpayable",
      "type": "function"
    },
    {
      "inputs": [
        {
          "name": "candidateNames",
          "type": "bytes32[]"
        }
      ],
      "payable": false,
      "stateMutability": "nonpayable",
      "type": "constructor"
    },
    {
      "anonymous": false,
      "inputs": [
        {
          "indexed": true,
          "name": "previousOwner",
          "type": "address"
        },
        {
          "indexed": true,
          "name": "newOwner",
          "type": "address"
        }
      ],
      "name": "OwnershipTransferred",
      "type": "event"
    }
  ],
  "bytecode": "0x6060604052341561000f57600080fd5b60405161063938038061063983398101604052808051820191905050336000806101000a81548173ffffffffffffffffffffffffffffffffffffffff021916908373ffffffffffffffffffffffffffffffffffffffff1602179055508060029080519060200190610081929190610088565b5050610100565b8280548282559060005260206000209081019282156100ca579160200282015b828111156100c95782518290600019169055916020019190600101906100a8565b5b5090506100d791906100db565b5090565b6100fd91905b808211156100f95760008160009055506001016100e1565b5090565b90565b61052a8061010f6000396000f300606060405260043610610083576000357c0100000000000000000000000000000000000000000000000000000000900463ffffffff1680632f265cf714610088578063392e6678146100c95780637021939f146101085780638da5cb5b14610149578063b13c744b1461019e578063cc9ab267146101dd578063f2fde38b14610204575b600080fd5b341561009357600080fd5b6100ad60048080356000191690602001909190505061023d565b604051808260ff1660ff16815260200191505060405180910390f35b34156100d457600080fd5b6100ee600480803560001916906020019091905050610283565b604051808215151515815260200191505060405180910390f35b341561011357600080fd5b61012d6004808035600019169060200190919050506102e3565b604051808260ff1660ff16815260200191505060405180910390f35b341561015457600080fd5b61015c610303565b604051808273ffffffffffffffffffffffffffffffffffffffff1673ffffffffffffffffffffffffffffffffffffffff16815260200191505060405180910390f35b34156101a957600080fd5b6101bf6004808035906020019091905050610328565b60405180826000191660001916815260200191505060405180910390f35b34156101e857600080fd5b61020260048080356000191690602001909190505061034c565b005b341561020f57600080fd5b61023b600480803573ffffffffffffffffffffffffffffffffffffffff169060200190919050506103a9565b005b600061024882610283565b151561025357600080fd5b60016000836000191660001916815260200190815260200160002060009054906101000a900460ff169050919050565b600080600090505b6002805490508110156102d85782600019166002828154811015156102ac57fe5b9060005260206000209001546000191614156102cb57600191506102dd565b808060010191505061028b565b600091505b50919050565b60016020528060005260406000206000915054906101000a900460ff1681565b6000809054906101000a900473ffffffffffffffffffffffffffffffffffffffff1681565b60028181548110151561033757fe5b90600052602060002090016000915090505481565b61035581610283565b151561036057600080fd5b6001806000836000191660001916815260200190815260200160002060008282829054906101000a900460ff160192506101000a81548160ff021916908360ff16021790555050565b6000809054906101000a900473ffffffffffffffffffffffffffffffffffffffff1673ffffffffffffffffffffffffffffffffffffffff163373ffffffffffffffffffffffffffffffffffffffff1614151561040457600080fd5b600073ffffffffffffffffffffffffffffffffffffffff168173ffffffffffffffffffffffffffffffffffffffff161415151561044057600080fd5b8073ffffffffffffffffffffffffffffffffffffffff166000809054906101000a900473ffffffffffffffffffffffffffffffffffffffff1673ffffffffffffffffffffffffffffffffffffffff167f8be0079c531659141344cd1fd0a4f28419497f9722a3daafe3b4186f6b6457e060405160405180910390a3806000806101000a81548173ffffffffffffffffffffffffffffffffffffffff021916908373ffffffffffffffffffffffffffffffffffffffff160217905550505600a165627a7a72305820a72ed58ddac59049943b58ed13083ab92b7859a79907ba84aa33f717b9416bfc0029",
  "source": "pragma solidity ^0.4.18; //We have to specify what version of compiler this code will use\nimport \"zeppelin-solidity/contracts/ownership/Ownable.sol\";\n\ncontract Voting is Ownable {\n  /* mapping is equivalent to an associate array or hash\n  The key of the mapping is candidate name stored as type bytes32 and value is\n  an unsigned integer which used to store the vote count\n  */\n  mapping (bytes32 => uint8) public votesReceived;\n\n  /* Solidity doesn't let you create an array of strings yet. We will use an array of bytes32 instead to store\n  the list of candidates\n  */\n\n  bytes32[] public candidateList;\n\n  // Initialize all the contestants\n  function Voting(bytes32[] candidateNames) public {\n    candidateList = candidateNames;\n  }\n\n  function totalVotesFor(bytes32 candidate) view public returns (uint8) {\n    require(validCandidate(candidate));\n    return votesReceived[candidate];\n  }\n\n  function voteForCandidate(bytes32 candidate) public {\n    require(validCandidate(candidate));\n    votesReceived[candidate] += 1;\n  }\n\n  function validCandidate(bytes32 candidate) view public returns (bool) {\n    for(uint i = 0; i < candidateList.length; i++) {\n      if (candidateList[i] == candidate) {\n        return true;\n      }\n    }\n    return false;\n  }\n}\n",
  "sourcePath": "/root/Documents/voting-food-app/contracts/Voting.sol",
  "compiler": {
    "name": "solc",
    "version": "0.4.18+commit.9cf6e910.Emscripten.clang"
  },
  "schemaVersion": "1.0.1",
  "updatedAt": "2017-12-09T04:02:04.153Z"
}